{
  "_format": "hh-sol-artifact-1",
  "contractName": "CourseRating",
  "sourceName": "contracts/CourseRating.sol",
  "abi": [
    {
      "anonymous": false,
      "inputs": [
        {
          "indexed": true,
          "internalType": "uint256",
          "name": "courseId",
          "type": "uint256"
        },
        {
          "indexed": false,
          "internalType": "uint256",
          "name": "rating",
          "type": "uint256"
        }
      ],
      "name": "CourseRated",
      "type": "event"
    },
    {
      "inputs": [
        {
          "internalType": "uint256",
          "name": "",
          "type": "uint256"
        }
      ],
      "name": "courses",
      "outputs": [
        {
          "internalType": "uint256",
          "name": "courseId",
          "type": "uint256"
        },
        {
          "internalType": "uint256",
          "name": "totalRating",
          "type": "uint256"
        },
        {
          "internalType": "uint256",
          "name": "numberOfRatings",
          "type": "uint256"
        }
      ],
      "stateMutability": "view",
      "type": "function"
    },
    {
      "inputs": [
        {
          "internalType": "uint256",
          "name": "courseId",
          "type": "uint256"
        }
      ],
      "name": "getAverageRating",
      "outputs": [
        {
          "internalType": "uint256",
          "name": "totalRating",
          "type": "uint256"
        },
        {
          "internalType": "uint256",
          "name": "numberOfRatings",
          "type": "uint256"
        }
      ],
      "stateMutability": "view",
      "type": "function"
    },
    {
      "inputs": [
        {
          "internalType": "uint256",
          "name": "courseId",
          "type": "uint256"
        },
        {
          "internalType": "uint256",
          "name": "rating",
          "type": "uint256"
        }
      ],
      "name": "rateCourse",
      "outputs": [],
      "stateMutability": "nonpayable",
      "type": "function"
    }
  ],
  "bytecode": "0x608060405234801561001057600080fd5b506104c4806100206000396000f3fe608060405234801561001057600080fd5b50600436106100415760003560e01c806317b7e03e14610046578063354261da1461008f57806396f979d2146100c7575b600080fd5b6100726004803603602081101561005c57600080fd5b8101908080359060200190929190505050610117565b604051808381526020018281526020019250505060405180910390f35b6100c5600480360360408110156100a557600080fd5b810190808035906020019092919080359060200190929190505050610265565b005b6100f3600480360360208110156100dd57600080fd5b8101908080359060200190929190505050610435565b60405180848152602001838152602001828152602001935050505060405180910390f35b600080600080600085815260200190815260200160002060000154116101a5576040517f08c379a00000000000000000000000000000000000000000000000000000000081526004018080602001828103825260158152602001807f436f7572736520646f6573206e6f74206578697374000000000000000000000081525060200191505060405180910390fd5b60008060008581526020019081526020016000206002015411610230576040517f08c379a00000000000000000000000000000000000000000000000000000000081526004018080602001828103825260198152602001807f4e6f20726174696e677320666f722074686520636f757273650000000000000081525060200191505060405180910390fd5b600080848152602001908152602001600020600101546000808581526020019081526020016000206002015491509150915091565b600082116102db576040517f08c379a00000000000000000000000000000000000000000000000000000000081526004018080602001828103825260108152602001807f496e76616c696420636f7572736549640000000000000000000000000000000081525060200191505060405180910390fd5b600181101580156102ed575060058111155b610342576040517f08c379a000000000000000000000000000000000000000000000000000000000815260040180806020018281038252602f815260200180610460602f913960400191505060405180910390fd5b60008060008481526020019081526020016000206000015414156103b15760405180606001604052808381526020016000815260200160008152506000808481526020019081526020016000206000820151816000015560208201518160010155604082015181600201559050505b806000808481526020019081526020016000206001016000828254019250508190555060008083815260200190815260200160002060020160008154809291906001019190505550817f100dba8446fd541c46249a645c0c69e42c249a3ba1c6db290e3e473874a9aab1826040518082815260200191505060405180910390a25050565b6000602052806000526040600020600091509050806000015490806001015490806002015490508356fe496e76616c696420726174696e672e20526174696e67206d757374206265206265747765656e203120616e6420352ea26469706673582212206482d094062f419e156a6fa37bba88c3f499e13b30634ac659f0fae553f50d5864736f6c63430007030033",
  "linkReferences": {},
  "deployedLinkReferences": {}
}